{
  "contractName": "MyContract",
  "abi": [
    {
      "constant": true,
      "inputs": [],
      "name": "seller",
      "outputs": [
        {
          "name": "",
          "type": "address"
        }
      ],
      "payable": false,
      "stateMutability": "view",
      "type": "function"
    },
    {
      "constant": true,
      "inputs": [],
      "name": "streetAddress",
      "outputs": [
        {
          "name": "",
          "type": "string"
        }
      ],
      "payable": false,
      "stateMutability": "view",
      "type": "function"
    },
    {
      "constant": true,
      "inputs": [],
      "name": "buyer",
      "outputs": [
        {
          "name": "",
          "type": "address"
        }
      ],
      "payable": false,
      "stateMutability": "view",
      "type": "function"
    },
    {
      "constant": true,
      "inputs": [],
      "name": "price",
      "outputs": [
        {
          "name": "",
          "type": "uint256"
        }
      ],
      "payable": false,
      "stateMutability": "view",
      "type": "function"
    },
    {
      "inputs": [],
      "payable": false,
      "stateMutability": "nonpayable",
      "type": "constructor"
    },
    {
      "constant": false,
      "inputs": [],
      "name": "buyHouse",
      "outputs": [],
      "payable": true,
      "stateMutability": "payable",
      "type": "function"
    }
  ],
  "bytecode": "0x6060604052341561000f57600080fd5b336000806101000a81548173ffffffffffffffffffffffffffffffffffffffff021916908373ffffffffffffffffffffffffffffffffffffffff1602179055506040805190810160405280600f81526020017f33353020357468204176652c204e5900000000000000000000000000000000008152506004908051906020019061009a9291906100f8565b506040805190810160405280600f81526020017f3338373634383239373334313631390000000000000000000000000000000000815250600290805190602001906100e69291906100f8565b5064170cdc1e0060038190555061019d565b828054600181600116156101000203166002900490600052602060002090601f016020900481019282601f1061013957805160ff1916838001178555610167565b82800160010185558215610167579182015b8281111561016657825182559160200191906001019061014b565b5b5090506101749190610178565b5090565b61019a91905b8082111561019657600081600090555060010161017e565b5090565b90565b610496806101ac6000396000f30060606040526004361061006d576000357c0100000000000000000000000000000000000000000000000000000000900463ffffffff16806308551a531461007257806347d90576146100c75780637150d8ae14610155578063a035b1fe146101aa578063d1119664146101d3575b600080fd5b341561007d57600080fd5b6100856101dd565b604051808273ffffffffffffffffffffffffffffffffffffffff1673ffffffffffffffffffffffffffffffffffffffff16815260200191505060405180910390f35b34156100d257600080fd5b6100da610202565b6040518080602001828103825283818151815260200191508051906020019080838360005b8381101561011a5780820151818401526020810190506100ff565b50505050905090810190601f1680156101475780820380516001836020036101000a031916815260200191505b509250505060405180910390f35b341561016057600080fd5b6101686102a0565b604051808273ffffffffffffffffffffffffffffffffffffffff1673ffffffffffffffffffffffffffffffffffffffff16815260200191505060405180910390f35b34156101b557600080fd5b6101bd6102c6565b6040518082815260200191505060405180910390f35b6101db6102cc565b005b6000809054906101000a900473ffffffffffffffffffffffffffffffffffffffff1681565b60048054600181600116156101000203166002900480601f0160208091040260200160405190810160405280929190818152602001828054600181600116156101000203166002900480156102985780601f1061026d57610100808354040283529160200191610298565b820191906000526020600020905b81548152906001019060200180831161027b57829003601f168201915b505050505081565b600160009054906101000a900473ffffffffffffffffffffffffffffffffffffffff1681565b60035481565b60008060009054906101000a900473ffffffffffffffffffffffffffffffffffffffff1673ffffffffffffffffffffffffffffffffffffffff161415151561031357600080fd5b6000600160009054906101000a900473ffffffffffffffffffffffffffffffffffffffff1673ffffffffffffffffffffffffffffffffffffffff1614151561035a57600080fd5b6000809054906101000a900473ffffffffffffffffffffffffffffffffffffffff1673ffffffffffffffffffffffffffffffffffffffff163373ffffffffffffffffffffffffffffffffffffffff16141515156103b657600080fd5b600354341415156103c657600080fd5b33600160006101000a81548173ffffffffffffffffffffffffffffffffffffffff021916908373ffffffffffffffffffffffffffffffffffffffff1602179055506000809054906101000a900473ffffffffffffffffffffffffffffffffffffffff1673ffffffffffffffffffffffffffffffffffffffff166108fc349081150290604051600060405180830381858888f19350505050151561046857600080fd5b5600a165627a7a72305820d0b8dad2bd69605f8ce25a9399aa17adeea831e504473777731411e3db120e6c0029",
  "source": "pragma solidity ^0.4.0;\r\n\r\ncontract MyContract {\r\n    address public seller;\r\n    address public buyer;\r\n    string title;\r\n    uint256 public price;\r\n    string public streetAddress;\r\n\r\n    function MyContract() public {\r\n        seller = msg.sender;\r\n        streetAddress = \"350 5th Ave, NY\";\r\n        title = \"387648297341619\";\r\n        price = 99000000000;\r\n\r\n    }\r\n\r\n    function buyHouse() payable public {\r\n        require(seller != 0x0);\r\n        require(buyer == 0x0);\r\n        require(msg.sender != seller);\r\n        require(msg.value == price);\r\n        buyer = msg.sender;\r\n        seller.transfer(msg.value);\r\n    }\r\n}",
  "sourcePath": "C:\\git\\eth\\contracts\\MyContract.sol",
  "compiler": {
    "name": "solc",
    "version": "0.4.19+commit.c4cbbb05.Emscripten.clang"
  },
  "schemaVersion": "2.0.0",
  "updatedAt": "2018-03-11T15:40:47.107Z"
}