{
  "contractName": "MyContract",
  "abi": [
    {
      "constant": true,
      "inputs": [],
      "name": "price",
      "outputs": [
        {
          "name": "",
          "type": "uint256"
        }
      ],
      "payable": false,
      "stateMutability": "view",
      "type": "function"
    },
    {
      "inputs": [],
      "payable": false,
      "stateMutability": "nonpayable",
      "type": "constructor"
    }
  ],
  "bytecode": "0x60606040523415600e57600080fd5b64170cdc1e00600081905550609c806100286000396000f300606060405260043610603f576000357c0100000000000000000000000000000000000000000000000000000000900463ffffffff168063a035b1fe146044575b600080fd5b3415604e57600080fd5b6054606a565b6040518082815260200191505060405180910390f35b600054815600a165627a7a72305820906476f3eba163a7c43779c1a58ad2d69de1c3c29de6e3ab16d30b0f56a3089d0029",
  "source": "pragma solidity ^0.4.0;\r\n\r\ncontract MyContract {\r\n    uint256 public price;\r\n    function MyContract() public {\r\n        price = 99000000000;\r\n\r\n    }\r\n}",
  "sourcePath": "C:\\git\\eth\\contracts\\MyContract.sol",
  "compiler": {
    "name": "solc",
    "version": "0.4.19+commit.c4cbbb05.Emscripten.clang"
  },
  "schemaVersion": "2.0.0",
  "updatedAt": "2018-03-10T21:14:47.450Z"
}